:100000000C942A000C9434000C9434000C943400AA
:100010000C9434000C9434000C9434000C94340090
:100020000C9434000C9434000C9434000C94340080
:100030000C9434000C9434000C9434000C94340070
:100040000C9434000C9434000C9434000C94340060
:100050000C94340011241FBECFE5D8E0DEBFCDBF25
:100060000E9436000C9451000C9400008A988D9ADE
:100070008E9A8F9A20E290E4809BFECF82B38227F3
:1000800082BB82B3892782BB82B3805882BB3FEF99
:1000900042E587E0315040408040E1F700C0000079
:0600A000EBCFF894FFCF46
:00000001FF
