:100000000C942A000C9434000C9434000C943400AA
:100010000C9434000C9434000C9434000C94340090
:100020000C9434000C9434000C9434000C94340080
:100030000C9434000C9434000C9434000C94340070
:100040000C9434000C9434000C9434000C94340060
:100050000C94340011241FBECFE5D8E0DEBFCDBF25
:100060000E9436000C9446000C9400008A988998EF
:100070008D9A8E9A8F9A809B02C0959A01C095980E
:10008000809B02C0969AF7CF9698F5CFF894FFCF51
:00000001FF
